{
  "contractName": "Crowdfunding",
  "abi": [
    {
      "anonymous": false,
      "inputs": [
        {
          "indexed": false,
          "internalType": "uint256",
          "name": "campaignId",
          "type": "uint256"
        },
        {
          "indexed": false,
          "internalType": "address",
          "name": "owner",
          "type": "address"
        },
        {
          "indexed": false,
          "internalType": "string",
          "name": "title",
          "type": "string"
        },
        {
          "indexed": false,
          "internalType": "uint256",
          "name": "target",
          "type": "uint256"
        },
        {
          "indexed": false,
          "internalType": "uint256",
          "name": "deadline",
          "type": "uint256"
        }
      ],
      "name": "CampaignCreated",
      "type": "event"
    },
    {
      "anonymous": false,
      "inputs": [
        {
          "indexed": false,
          "internalType": "uint256",
          "name": "campaignId",
          "type": "uint256"
        },
        {
          "indexed": false,
          "internalType": "address",
          "name": "contributor",
          "type": "address"
        },
        {
          "indexed": false,
          "internalType": "uint256",
          "name": "amount",
          "type": "uint256"
        }
      ],
      "name": "ContributionMade",
      "type": "event"
    },
    {
      "anonymous": false,
      "inputs": [
        {
          "indexed": false,
          "internalType": "uint256",
          "name": "campaignId",
          "type": "uint256"
        },
        {
          "indexed": false,
          "internalType": "address",
          "name": "owner",
          "type": "address"
        },
        {
          "indexed": false,
          "internalType": "uint256",
          "name": "amount",
          "type": "uint256"
        }
      ],
      "name": "FundsClaimed",
      "type": "event"
    },
    {
      "inputs": [],
      "name": "campaignCount",
      "outputs": [
        {
          "internalType": "uint256",
          "name": "",
          "type": "uint256"
        }
      ],
      "stateMutability": "view",
      "type": "function"
    },
    {
      "inputs": [
        {
          "internalType": "uint256",
          "name": "",
          "type": "uint256"
        }
      ],
      "name": "campaigns",
      "outputs": [
        {
          "internalType": "address",
          "name": "owner",
          "type": "address"
        },
        {
          "internalType": "string",
          "name": "title",
          "type": "string"
        },
        {
          "internalType": "string",
          "name": "description",
          "type": "string"
        },
        {
          "internalType": "uint256",
          "name": "target",
          "type": "uint256"
        },
        {
          "internalType": "uint256",
          "name": "deadline",
          "type": "uint256"
        },
        {
          "internalType": "uint256",
          "name": "amountCollected",
          "type": "uint256"
        }
      ],
      "stateMutability": "view",
      "type": "function"
    },
    {
      "inputs": [
        {
          "internalType": "string",
          "name": "_title",
          "type": "string"
        },
        {
          "internalType": "string",
          "name": "_description",
          "type": "string"
        },
        {
          "internalType": "uint256",
          "name": "_target",
          "type": "uint256"
        },
        {
          "internalType": "uint256",
          "name": "_deadline",
          "type": "uint256"
        }
      ],
      "name": "createCampaign",
      "outputs": [],
      "stateMutability": "nonpayable",
      "type": "function"
    },
    {
      "inputs": [
        {
          "internalType": "uint256",
          "name": "_campaignId",
          "type": "uint256"
        }
      ],
      "name": "contribute",
      "outputs": [],
      "stateMutability": "payable",
      "type": "function"
    },
    {
      "inputs": [
        {
          "internalType": "uint256",
          "name": "_campaignId",
          "type": "uint256"
        }
      ],
      "name": "claimFunds",
      "outputs": [],
      "stateMutability": "nonpayable",
      "type": "function"
    },
    {
      "inputs": [
        {
          "internalType": "uint256",
          "name": "_campaignId",
          "type": "uint256"
        }
      ],
      "name": "getCampaignDetails",
      "outputs": [
        {
          "internalType": "address",
          "name": "owner",
          "type": "address"
        },
        {
          "internalType": "string",
          "name": "title",
          "type": "string"
        },
        {
          "internalType": "string",
          "name": "description",
          "type": "string"
        },
        {
          "internalType": "uint256",
          "name": "target",
          "type": "uint256"
        },
        {
          "internalType": "uint256",
          "name": "deadline",
          "type": "uint256"
        },
        {
          "internalType": "uint256",
          "name": "amountCollected",
          "type": "uint256"
        }
      ],
      "stateMutability": "view",
      "type": "function"
    },
    {
      "inputs": [
        {
          "internalType": "uint256",
          "name": "_campaignId",
          "type": "uint256"
        },
        {
          "internalType": "address",
          "name": "_contributor",
          "type": "address"
        }
      ],
      "name": "getContribution",
      "outputs": [
        {
          "internalType": "uint256",
          "name": "",
          "type": "uint256"
        }
      ],
      "stateMutability": "view",
      "type": "function"
    }
  ],
  "bytecode": "0x608060405234801561001057600080fd5b506112b3806100206000396000f3fe6080604052600436106100705760003560e01c8063a318f2691161004e578063a318f2691461010b578063c1cbbca714610134578063d993de6214610150578063e081dbf91461019257610070565b8063141961bc146100755780631b55e338146100b75780637274e30d146100e0575b600080fd5b34801561008157600080fd5b5061009c60048036038101906100979190610ba8565b6101cf565b6040516100ae96959493929190610e0a565b60405180910390f35b3480156100c357600080fd5b506100de60048036038101906100d99190610ba8565b61033b565b005b3480156100ec57600080fd5b506100f5610557565b6040516101029190610f39565b60405180910390f35b34801561011757600080fd5b50610132600480360381019061012d9190610b15565b61055d565b005b61014e60048036038101906101499190610ba8565b6106a8565b005b34801561015c57600080fd5b5061017760048036038101906101729190610ba8565b6107fa565b60405161018996959493929190610e0a565b60405180910390f35b34801561019e57600080fd5b506101b960048036038101906101b49190610bd1565b610983565b6040516101c69190610f39565b60405180910390f35b60006020528060005260406000206000915090508060000160009054906101000a900473ffffffffffffffffffffffffffffffffffffffff169080600101805461021890611136565b80601f016020809104026020016040519081016040528092919081815260200182805461024490611136565b80156102915780601f1061026657610100808354040283529160200191610291565b820191906000526020600020905b81548152906001019060200180831161027457829003601f168201915b5050505050908060020180546102a690611136565b80601f01602080910402602001604051908101604052809291908181526020018280546102d290611136565b801561031f5780601f106102f45761010080835404028352916020019161031f565b820191906000526020600020905b81548152906001019060200180831161030257829003601f168201915b5050505050908060030154908060040154908060050154905086565b600080600083815260200190815260200160002090508060000160009054906101000a900473ffffffffffffffffffffffffffffffffffffffff1673ffffffffffffffffffffffffffffffffffffffff163373ffffffffffffffffffffffffffffffffffffffff16146103e3576040517f08c379a00000000000000000000000000000000000000000000000000000000081526004016103da90610ef9565b60405180910390fd5b806004015442101561042a576040517f08c379a000000000000000000000000000000000000000000000000000000000815260040161042190610ed9565b60405180910390fd5b806003015481600501541015610475576040517f08c379a000000000000000000000000000000000000000000000000000000000815260040161046c90610e99565b60405180910390fd5b600081600501549050600082600501819055508160000160009054906101000a900473ffffffffffffffffffffffffffffffffffffffff1673ffffffffffffffffffffffffffffffffffffffff166108fc829081150290604051600060405180830381858888f193505050501580156104f2573d6000803e3d6000fd5b507fa4eb50103b0591feb0bc913f479d92af5eb7ea33e8c397b49bab52ce6af26cb5838360000160009054906101000a900473ffffffffffffffffffffffffffffffffffffffff168360405161054a93929190610fae565b60405180910390a1505050565b60015481565b42811161059f576040517f08c379a000000000000000000000000000000000000000000000000000000000815260040161059690610f19565b60405180910390fd5b600080600060015481526020019081526020016000209050338160000160006101000a81548173ffffffffffffffffffffffffffffffffffffffff021916908373ffffffffffffffffffffffffffffffffffffffff160217905550848160010190805190602001906106129291906109e0565b508381600201908051906020019061062b9291906109e0565b50828160030181905550818160040181905550600081600501819055507fdc26653af5b99b2da33e2ad69ee6600d9aeccc82b034501db4338309615ca23860015433878686604051610681959493929190610f54565b60405180910390a16001600081548092919061069c90611168565b91905055505050505050565b60015481106106ec576040517f08c379a00000000000000000000000000000000000000000000000000000000081526004016106e390610e79565b60405180910390fd5b6000806000838152602001908152602001600020905080600401544210610748576040517f08c379a000000000000000000000000000000000000000000000000000000000815260040161073f90610eb9565b60405180910390fd5b348160060160003373ffffffffffffffffffffffffffffffffffffffff1673ffffffffffffffffffffffffffffffffffffffff16815260200190815260200160002060008282546107999190611062565b92505081905550348160050160008282546107b49190611062565b925050819055507f0a4a91237423e0a1766a761c7cb029311d8b95d6b1b81db1b949a70c98b4e08e8233346040516107ee93929190610fae565b60405180910390a15050565b600060608060008060008060008089815260200190815260200160002090508060000160009054906101000a900473ffffffffffffffffffffffffffffffffffffffff16816001018260020183600301548460040154856005015484805461086190611136565b80601f016020809104026020016040519081016040528092919081815260200182805461088d90611136565b80156108da5780601f106108af576101008083540402835291602001916108da565b820191906000526020600020905b8154815290600101906020018083116108bd57829003601f168201915b505050505094508380546108ed90611136565b80601f016020809104026020016040519081016040528092919081815260200182805461091990611136565b80156109665780601f1061093b57610100808354040283529160200191610966565b820191906000526020600020905b81548152906001019060200180831161094957829003601f168201915b505050505093509650965096509650965096505091939550919395565b600080600084815260200190815260200160002060060160008373ffffffffffffffffffffffffffffffffffffffff1673ffffffffffffffffffffffffffffffffffffffff16815260200190815260200160002054905092915050565b8280546109ec90611136565b90600052602060002090601f016020900481019282610a0e5760008555610a55565b82601f10610a2757805160ff1916838001178555610a55565b82800160010185558215610a55579182015b82811115610a54578251825591602001919060010190610a39565b5b509050610a629190610a66565b5090565b5b80821115610a7f576000816000905550600101610a67565b5090565b6000610a96610a9184611016565b610fe5565b905082815260208101848484011115610aae57600080fd5b610ab98482856110f4565b509392505050565b600081359050610ad08161124f565b92915050565b600082601f830112610ae757600080fd5b8135610af7848260208601610a83565b91505092915050565b600081359050610b0f81611266565b92915050565b60008060008060808587031215610b2b57600080fd5b600085013567ffffffffffffffff811115610b4557600080fd5b610b5187828801610ad6565b945050602085013567ffffffffffffffff811115610b6e57600080fd5b610b7a87828801610ad6565b9350506040610b8b87828801610b00565b9250506060610b9c87828801610b00565b91505092959194509250565b600060208284031215610bba57600080fd5b6000610bc884828501610b00565b91505092915050565b60008060408385031215610be457600080fd5b6000610bf285828601610b00565b9250506020610c0385828601610ac1565b9150509250929050565b610c16816110b8565b82525050565b6000610c2782611046565b610c318185611051565b9350610c41818560208601611103565b610c4a8161123e565b840191505092915050565b6000610c62601783611051565b91507f43616d706169676e20646f6573206e6f742065786973740000000000000000006000830152602082019050919050565b6000610ca2601883611051565b91507f46756e64696e6720676f616c206e6f74207265616368656400000000000000006000830152602082019050919050565b6000610ce2601283611051565b91507f43616d706169676e2068617320656e64656400000000000000000000000000006000830152602082019050919050565b6000610d22601a83611051565b91507f43616d706169676e20686173206e6f7420656e646564207965740000000000006000830152602082019050919050565b6000610d62602783611051565b91507f4f6e6c79207468652063616d706169676e206f776e65722063616e20636c616960008301527f6d2066756e6473000000000000000000000000000000000000000000000000006020830152604082019050919050565b6000610dc8601e83611051565b91507f446561646c696e65206d75737420626520696e207468652066757475726500006000830152602082019050919050565b610e04816110ea565b82525050565b600060c082019050610e1f6000830189610c0d565b8181036020830152610e318188610c1c565b90508181036040830152610e458187610c1c565b9050610e546060830186610dfb565b610e616080830185610dfb565b610e6e60a0830184610dfb565b979650505050505050565b60006020820190508181036000830152610e9281610c55565b9050919050565b60006020820190508181036000830152610eb281610c95565b9050919050565b60006020820190508181036000830152610ed281610cd5565b9050919050565b60006020820190508181036000830152610ef281610d15565b9050919050565b60006020820190508181036000830152610f1281610d55565b9050919050565b60006020820190508181036000830152610f3281610dbb565b9050919050565b6000602082019050610f4e6000830184610dfb565b92915050565b600060a082019050610f696000830188610dfb565b610f766020830187610c0d565b8181036040830152610f888186610c1c565b9050610f976060830185610dfb565b610fa46080830184610dfb565b9695505050505050565b6000606082019050610fc36000830186610dfb565b610fd06020830185610c0d565b610fdd6040830184610dfb565b949350505050565b6000604051905081810181811067ffffffffffffffff8211171561100c5761100b61120f565b5b8060405250919050565b600067ffffffffffffffff8211156110315761103061120f565b5b601f19601f8301169050602081019050919050565b600081519050919050565b600082825260208201905092915050565b600061106d826110ea565b9150611078836110ea565b9250827fffffffffffffffffffffffffffffffffffffffffffffffffffffffffffffffff038211156110ad576110ac6111b1565b5b828201905092915050565b60006110c3826110ca565b9050919050565b600073ffffffffffffffffffffffffffffffffffffffff82169050919050565b6000819050919050565b82818337600083830152505050565b60005b83811015611121578082015181840152602081019050611106565b83811115611130576000848401525b50505050565b6000600282049050600182168061114e57607f821691505b60208210811415611162576111616111e0565b5b50919050565b6000611173826110ea565b91507fffffffffffffffffffffffffffffffffffffffffffffffffffffffffffffffff8214156111a6576111a56111b1565b5b600182019050919050565b7f4e487b7100000000000000000000000000000000000000000000000000000000600052601160045260246000fd5b7f4e487b7100000000000000000000000000000000000000000000000000000000600052602260045260246000fd5b7f4e487b7100000000000000000000000000000000000000000000000000000000600052604160045260246000fd5b6000601f19601f8301169050919050565b611258816110b8565b811461126357600080fd5b50565b61126f816110ea565b811461127a57600080fd5b5056fea264697066735822122095e598e7e923a59f79c71b77d06104f3dfc981ddc52a8dc2ad6f8809902b418364736f6c63430008000033",
  "immutableReferences": {},
  "source": "// SPDX-License-Identifier: MIT\r\npragma solidity ^0.8.0;\r\n\r\ncontract Crowdfunding {\r\n    struct Campaign {\r\n        address owner;\r\n        string title;\r\n        string description;\r\n        uint256 target;\r\n        uint256 deadline;\r\n        uint256 amountCollected;\r\n        mapping(address => uint256) contributions;\r\n    }\r\n\r\n    mapping(uint256 => Campaign) public campaigns;\r\n    uint256 public campaignCount;\r\n\r\n    event CampaignCreated(uint256 campaignId, address owner, string title, uint256 target, uint256 deadline);\r\n    event ContributionMade(uint256 campaignId, address contributor, uint256 amount);\r\n    event FundsClaimed(uint256 campaignId, address owner, uint256 amount);\r\n\r\n    function createCampaign(string memory _title, string memory _description, uint256 _target, uint256 _deadline) public {\r\n        require(_deadline > block.timestamp, \"Deadline must be in the future\");\r\n\r\n        Campaign storage newCampaign = campaigns[campaignCount];\r\n        newCampaign.owner = msg.sender;\r\n        newCampaign.title = _title;\r\n        newCampaign.description = _description;\r\n        newCampaign.target = _target;\r\n        newCampaign.deadline = _deadline;\r\n        newCampaign.amountCollected = 0;\r\n\r\n        emit CampaignCreated(campaignCount, msg.sender, _title, _target, _deadline);\r\n        campaignCount++;\r\n    }\r\n\r\n    function contribute(uint256 _campaignId) public payable {\r\n    require(_campaignId < campaignCount, \"Campaign does not exist\"); // Check if campaign exists\r\n    Campaign storage campaign = campaigns[_campaignId];\r\n    require(block.timestamp < campaign.deadline, \"Campaign has ended\");\r\n\r\n    campaign.contributions[msg.sender] += msg.value;\r\n    campaign.amountCollected += msg.value;\r\n\r\n    emit ContributionMade(_campaignId, msg.sender, msg.value);\r\n    }\r\n\r\n\r\n    function claimFunds(uint256 _campaignId) public {\r\n        Campaign storage campaign = campaigns[_campaignId];\r\n        require(msg.sender == campaign.owner, \"Only the campaign owner can claim funds\");\r\n        require(block.timestamp >= campaign.deadline, \"Campaign has not ended yet\");\r\n        require(campaign.amountCollected >= campaign.target, \"Funding goal not reached\");\r\n\r\n        uint256 amountToTransfer = campaign.amountCollected;\r\n        campaign.amountCollected = 0;\r\n        payable(campaign.owner).transfer(amountToTransfer);\r\n\r\n        emit FundsClaimed(_campaignId, campaign.owner, amountToTransfer);\r\n    }\r\n\r\n    function getCampaignDetails(uint256 _campaignId) public view returns (\r\n        address owner,\r\n        string memory title,\r\n        string memory description,\r\n        uint256 target,\r\n        uint256 deadline,\r\n        uint256 amountCollected\r\n    ) {\r\n        Campaign storage campaign = campaigns[_campaignId];\r\n        return (\r\n            campaign.owner,\r\n            campaign.title,\r\n            campaign.description,\r\n            campaign.target,\r\n            campaign.deadline,\r\n            campaign.amountCollected\r\n        );\r\n    }\r\n\r\n    function getContribution(uint256 _campaignId, address _contributor) public view returns (uint256) {\r\n        return campaigns[_campaignId].contributions[_contributor];\r\n    }\r\n}",
  "sourcePath": "D:\\Fourth Year (BE)\\Sem 7\\Blockchain\\Mini Project\\crowdfunding-dapp\\contracts\\Crowdfunding.sol",
  "compiler": {
    "name": "solc",
    "version": "0.8.0+commit.c7dfd78e.Emscripten.clang"
  },
  "schemaVersion": "3.4.16",
  "updatedAt": "2024-10-03T17:09:49.255Z",
  "devdoc": {
    "kind": "dev",
    "methods": {},
    "version": 1
  },
  "userdoc": {
    "kind": "user",
    "methods": {},
    "version": 1
  }
}